{
  "_format": "hh-sol-artifact-1",
  "contractName": "Battle",
  "sourceName": "contracts/Battle.sol",
  "abi": [
    {
      "inputs": [
        {
          "internalType": "address",
          "name": "_team1",
          "type": "address"
        },
        {
          "internalType": "address",
          "name": "_team2",
          "type": "address"
        },
        {
          "internalType": "uint256",
          "name": "duration",
          "type": "uint256"
        }
      ],
      "stateMutability": "payable",
      "type": "constructor"
    },
    {
      "inputs": [
        {
          "internalType": "address",
          "name": "user",
          "type": "address"
        }
      ],
      "name": "levelComplete",
      "outputs": [],
      "stateMutability": "nonpayable",
      "type": "function"
    },
    {
      "inputs": [
        {
          "internalType": "address",
          "name": "user",
          "type": "address"
        }
      ],
      "name": "nextSteps",
      "outputs": [],
      "stateMutability": "nonpayable",
      "type": "function"
    },
    {
      "inputs": [
        {
          "internalType": "address",
          "name": "supportiveTeam",
          "type": "address"
        },
        {
          "internalType": "uint256",
          "name": "user_amount",
          "type": "uint256"
        }
      ],
      "name": "participate",
      "outputs": [],
      "stateMutability": "nonpayable",
      "type": "function"
    }
  ],
  "bytecode": "0x608060405260405162000e2e38038062000e2e8339818101604052810190620000299190620001ad565b826000806101000a81548173ffffffffffffffffffffffffffffffffffffffff021916908373ffffffffffffffffffffffffffffffffffffffff16021790555081600160006101000a81548173ffffffffffffffffffffffffffffffffffffffff021916908373ffffffffffffffffffffffffffffffffffffffff1602179055508042620000b8919062000238565b60048190555033600960006101000a81548173ffffffffffffffffffffffffffffffffffffffff021916908373ffffffffffffffffffffffffffffffffffffffff16021790555050505062000273565b600080fd5b600073ffffffffffffffffffffffffffffffffffffffff82169050919050565b60006200013a826200010d565b9050919050565b6200014c816200012d565b81146200015857600080fd5b50565b6000815190506200016c8162000141565b92915050565b6000819050919050565b620001878162000172565b81146200019357600080fd5b50565b600081519050620001a7816200017c565b92915050565b600080600060608486031215620001c957620001c862000108565b5b6000620001d9868287016200015b565b9350506020620001ec868287016200015b565b9250506040620001ff8682870162000196565b9150509250925092565b7f4e487b7100000000000000000000000000000000000000000000000000000000600052601160045260246000fd5b6000620002458262000172565b9150620002528362000172565b92508282019050808211156200026d576200026c62000209565b5b92915050565b610bab80620002836000396000f3fe608060405234801561001057600080fd5b50600436106100415760003560e01c806363dbcf7914610046578063a51dd1ab14610062578063b64afbe51461007e575b600080fd5b610060600480360381019061005b9190610818565b61009a565b005b61007c60048036038101906100779190610818565b610264565b005b6100986004803603810190610093919061087b565b610469565b005b600960009054906101000a900473ffffffffffffffffffffffffffffffffffffffff1673ffffffffffffffffffffffffffffffffffffffff163373ffffffffffffffffffffffffffffffffffffffff16146100f457600080fd5b600860008273ffffffffffffffffffffffffffffffffffffffff1673ffffffffffffffffffffffffffffffffffffffff16815260200190815260200160002060009054906101000a900460ff1615610181576040517f08c379a000000000000000000000000000000000000000000000000000000000815260040161017890610918565b60405180910390fd5b600560008273ffffffffffffffffffffffffffffffffffffffff1673ffffffffffffffffffffffffffffffffffffffff16815260200190815260200160002060008154809291906101d190610967565b9190505550600760008273ffffffffffffffffffffffffffffffffffffffff1673ffffffffffffffffffffffffffffffffffffffff16815260200190815260200160002060009054906101000a900460ff166102465760646002600082825461023a91906109af565b92505081905550610261565b60646003600082825461025991906109af565b925050819055505b50565b600960009054906101000a900473ffffffffffffffffffffffffffffffffffffffff1673ffffffffffffffffffffffffffffffffffffffff163373ffffffffffffffffffffffffffffffffffffffff16146102f4576040517f08c379a00000000000000000000000000000000000000000000000000000000081526004016102eb90610a2f565b60405180910390fd5b600860008273ffffffffffffffffffffffffffffffffffffffff1673ffffffffffffffffffffffffffffffffffffffff16815260200190815260200160002060009054906101000a900460ff1615610381576040517f08c379a000000000000000000000000000000000000000000000000000000000815260040161037890610918565b60405180910390fd5b6001600860008373ffffffffffffffffffffffffffffffffffffffff1673ffffffffffffffffffffffffffffffffffffffff16815260200190815260200160002060006101000a81548160ff021916908315150217905550600760008273ffffffffffffffffffffffffffffffffffffffff1673ffffffffffffffffffffffffffffffffffffffff16815260200190815260200160002060009054906101000a900460ff1661044a576103e86002600082825461043e91906109af565b92505081905550610466565b6103e86003600082825461045e91906109af565b925050819055505b50565b6000811161047657600080fd5b60008054906101000a900473ffffffffffffffffffffffffffffffffffffffff1673ffffffffffffffffffffffffffffffffffffffff168273ffffffffffffffffffffffffffffffffffffffff16148061051d5750600160009054906101000a900473ffffffffffffffffffffffffffffffffffffffff1673ffffffffffffffffffffffffffffffffffffffff168273ffffffffffffffffffffffffffffffffffffffff16145b61052657600080fd5b60008290508073ffffffffffffffffffffffffffffffffffffffff166323b872dd3330856040518463ffffffff1660e01b815260040161056893929190610a6d565b6020604051808303816000875af1158015610587573d6000803e3d6000fd5b505050506040513d601f19601f820116820180604052508101906105ab9190610adc565b6105ea576040517f08c379a00000000000000000000000000000000000000000000000000000000081526004016105e190610b55565b60405180910390fd5b60008054906101000a900473ffffffffffffffffffffffffffffffffffffffff1673ffffffffffffffffffffffffffffffffffffffff168373ffffffffffffffffffffffffffffffffffffffff16036106b45760646002600082825461065091906109af565b925050819055506000600760003373ffffffffffffffffffffffffffffffffffffffff1673ffffffffffffffffffffffffffffffffffffffff16815260200190815260200160002060006101000a81548160ff021916908315150217905550610727565b6064600360008282546106c791906109af565b925050819055506001600760003373ffffffffffffffffffffffffffffffffffffffff1673ffffffffffffffffffffffffffffffffffffffff16815260200190815260200160002060006101000a81548160ff0219169083151502179055505b81600660003373ffffffffffffffffffffffffffffffffffffffff1673ffffffffffffffffffffffffffffffffffffffff168152602001908152602001600020819055506001600560003373ffffffffffffffffffffffffffffffffffffffff1673ffffffffffffffffffffffffffffffffffffffff16815260200190815260200160002081905550505050565b600080fd5b600073ffffffffffffffffffffffffffffffffffffffff82169050919050565b60006107e5826107ba565b9050919050565b6107f5816107da565b811461080057600080fd5b50565b600081359050610812816107ec565b92915050565b60006020828403121561082e5761082d6107b5565b5b600061083c84828501610803565b91505092915050565b6000819050919050565b61085881610845565b811461086357600080fd5b50565b6000813590506108758161084f565b92915050565b60008060408385031215610892576108916107b5565b5b60006108a085828601610803565b92505060206108b185828601610866565b9150509250929050565b600082825260208201905092915050565b7f555345525f414c52454144595f434f4d504c4554454400000000000000000000600082015250565b60006109026016836108bb565b915061090d826108cc565b602082019050919050565b60006020820190508181036000830152610931816108f5565b9050919050565b7f4e487b7100000000000000000000000000000000000000000000000000000000600052601160045260246000fd5b600061097282610845565b91507fffffffffffffffffffffffffffffffffffffffffffffffffffffffffffffffff82036109a4576109a3610938565b5b600182019050919050565b60006109ba82610845565b91506109c583610845565b92508282019050808211156109dd576109dc610938565b5b92915050565b7f4f4e4c595f4f574e455200000000000000000000000000000000000000000000600082015250565b6000610a19600a836108bb565b9150610a24826109e3565b602082019050919050565b60006020820190508181036000830152610a4881610a0c565b9050919050565b610a58816107da565b82525050565b610a6781610845565b82525050565b6000606082019050610a826000830186610a4f565b610a8f6020830185610a4f565b610a9c6040830184610a5e565b949350505050565b60008115159050919050565b610ab981610aa4565b8114610ac457600080fd5b50565b600081519050610ad681610ab0565b92915050565b600060208284031215610af257610af16107b5565b5b6000610b0084828501610ac7565b91505092915050565b7f546f6b656e207472616e73666572206661696c65640000000000000000000000600082015250565b6000610b3f6015836108bb565b9150610b4a82610b09565b602082019050919050565b60006020820190508181036000830152610b6e81610b32565b905091905056fea26469706673582212208ee59a0f16e1554d324a6b77a541030b2c55ab30cae3567762cbfc6b1c305e6264736f6c63430008180033",
  "linkReferences": {},
  "deployedLinkReferences": {}
}